:020000040000FA
:080000000F013A9F000E02D02F
:0800080004EF02F082AE0FD0FC
:08001000F66E040EF76E02D03B
:080018000CEF02F0000EF86E7F
:100020000900F53C00EF02F00900F53CFBD720EE9B
:1000300000F0700ED3129B8C82AEFED7900EAB6E8A
:10004000260EAC6EB886020ED56EAB98AE50AE5092
:10005000D76AD66AF2944ED8D58E4CD8D59EF2B4D3
:10006000F7D7D6CFAFFFD7CFB0FFAB882BD90F0ACA
:10007000ECE10F0E22D900EE04F024D90F0AF9E0CA
:100080000250040A07E00250050A01E11BD902C030
:10009000ECFFF3D710EE05F0006A016AEDCFF4FF34
:1000A000E65030D8E250EA62FBD7E150E962F8D777
:1000B0000150F462CAD70050EF62C7D7006A016AE4
:1000C0000650F66EA96E0750F76EAA6E08C0F8FFCC
:1000D00000EE0BF00A0E0560B8D7F9500544F9267A
:1000E00027D02FD039D04FD07CD0A8D0B5D0C4D015
:1000F00099D7FF000400F2B4120082BEFCD782AE92
:10010000FED71200011800C001F0006EE83A0F0B94
:10011000001A0038F00B011A0038E844011AE00B0D
:10012000011A001A120000030105FF8400000000FC
:10013000260EF66E010EF76E000EF86E0A0E0A6EAF
:100140000B6A0900F550ADD8DDDF0A06000E0B5A28
:100150000A500B10F6E19ED00900F550D3DFF6509F
:100160003F0BFAE1005051EC01F0015051EC01F06D
:100170000A06000E0B5A0A500B10EEE18FD0FF005A
:10018000FF00FF00FF00C00EF616000EF65C000E2A
:10019000F758010EF85802E6A66A17D0000EF65C72
:1001A000000EF758000EF8580DE6000EF65C030E30
:1001B000F758000EF85806E7A66A07D0FF00FF00C0
:1001C000FF00FF00940EA66E8BD8400EF65EE86A24
:1001D000F75AF85A0A2ED7D759D0FF00FF00FF0070
:1001E000FF00C00EF616000EF65C000EF758010E6A
:1001F000F85802E6A66A16D0000EF65C000EF75814
:10020000000EF8580DE6000EF65C030EF758000ECF
:10021000F85806E7A66A06D0FF00FF00FF00FF00BF
:10022000840EA66EEECFF5FF0D00F6503F0BFAE1FF
:100230000A0056D809000A2ED4D728D0A66AA6806C
:10024000A850A94AAA2A2DD85DDF0A06000E0B5A2B
:100250000A500B10F4E11ED0040EA66EECCFA8FFDE
:100260003FD8A6B2FED7A94AAA2A0A06000E0B5A00
:100270000A500B10F3E10AD0C40EA66E0800EE502F
:10028000F5622CD80B000A2EFAD700D0A66A0550CA
:1002900008D838DF005005D8015003D8040E0DD817
:1002A000E5D6036E0F0A06E00350040A03E003508C
:1002B000050A02E1050E01D8035004009EA8FED7EE
:1002C000AD6E1200ABB2FF0004009EAAFDD7AE5087
:1002D000026E1200FF00FF00FF00A66AF56E0C0020
:1002E0000400550EA76EAA0EA76EA682000012008B
:020000040030CA
:0100010032CC
:010002001FDE
:010003003CC0
:01000500BD3D
:010006008574
:010008000FE8
:01000900C036
:01000A000FE6
:01000B00E014
:01000C000FE4
:01000D0040B2
:00000001FF
